:0300000002212BAF
:0C212B00787FE4F6D8FD75812002217257
:102CB600121FFD122481122CDC122CC99200122341
:032CC6006780FB29
:1027F30046004701020304050641004D0146003B24
:102803000000000000004600412D2D2D2D2D2D46EA
:08281300003506050403020173
:042BDA007F017E00F9
:102BDE00D3EF9400EE940040147D6E7C00ED1D70DA
:0D2BEE00011CED4C70F7EF1F70E61E80E338
:012BFB0022B7
:10257F00900047E0FD7F01122C73122BDA90004878
:10258F00E0FD7F02122C73122BDA900049E0FD7FE1
:10259F0003122C73122BDA90004AE0FD7F04122CE9
:1025AF0073122BDA90004BE0FD7F05122C73122B68
:1025BF00DA90004CE0FD7F06122C737F017E000243
:0225CF002BDE01
:10248100E4FF122BB7EF6401703D7F01122BB7906F
:102491000047EFF07F02122BB7900048EFF07F0367
:1024A100122BB7900049EFF07F04122BB790004A2E
:1024B100EFF07F05122BB790004BEFF07F06122B48
:1024C100B790004CEFF0227D01E4FF122C73122B28
:0424D100DA12257F77
:0124D50022E4
:0614E4007B017A00793B58
:0B14EA00900055EBF0A3EAF0A3E9F03E
:1014F500A3E4F0A37410F0E4A3F0A3F090005AF075
:10150500A3F0C390005BE0940690005AE09400407D
:10151500030215E8900058E0FEA3E0FFD39409EE1E
:1015250094004008EF940EEE94004006EF64104ED0
:10153500700D1215EA900058EEF0A3EFF080D590EB
:101545000058E07004A3E0640E703390005AE0FE8A
:10155500A3E0FF4E7002C322EF24FFFFEE34FFFE2F
:101565001222FD90005674FF75F0FE121EE29000E7
:101575005BE024FEF090005AE034FFF080419000DB
:1015850058E0FCA3E0FD640F4C7002C32290005AA2
:10159500E0FEA3E0FF121D337F647E00122BDE9078
:1015A500005AE0FEA3E0FF12209B900058A3E0FF45
:1015B500900055E0FBA3E0FAA3E0F9EF121EBE9000
:1015C5000058E4F0A37410F090005BE004F070069E
:1015D50090005AE004F0900056E475F001121EE206
:0415E500021507D311
:0115E90022DF
:082B94007B017A00793B7D30E2
:102B9C00E4FFEFC3940674809480500EED121EBEB9
:0A2BAC000F740129F9E43AFA80E8F9
:012BB60022FC
:0B24D600900055EBF0A3EAF0A3E9F042
:1024E100D204E4FFEFC394067480948050399000C5
:1024F10058E0FBA3E0FAA3E0F9121EA5FE900055F7
:10250100E0FBA3E0FAA3E0F9121EA56E6002C2048B
:102511000F900056E475F001121EE2900059E47527
:09252100F001121EE280BDA204CB
:01252A00228E
:101F5E00E4900052F0A3F0C2037F01FE121343126D
:101F6E0014E49203200303021FFC9000587401F046
:101F7E00A37400F0A3743BF07B017A00794712241E
:101F8E00D69203122B9420030302199BE4FFFE1238
:101F9E0013431214E4920320030B7B017A00793B66
:101FAE007D30022B9CE4900052F0A3F0900052E0A2
:101FBE00FEA3E0FF243BF58274003EF583E0FD7442
:101FCE00472FF58274003EF583EDF0900053E00448
:101FDE00F07006900052E004F0900052E07004A3FE
:0E1FEE00E0640670C712257F122B94121B6749
:011FFC0022C2
:0B25D100900050EBF0A3EAF0A3E9F04B
:1025DC00C202A3E4F0A37410F0C2031214E492023A
:1025EC00200202802E9000587401F0A37400F0A316
:1025FC00743BF0900050E0FBA3E0FAA3E0F9122446
:10260C00D6920330030A121A81C2A3122D09800339
:06261C0012199B122B9421
:012622002295
:10283A00C202E4900050F0A3F01227AA920290007C
:10284A0051E004F07006900050E004F020020FC33B
:10285A00900051E0940A900050E0940040DB30026E
:0B286A0008121A81C2A3122D09A2025D
:012875002240
:102A4B00C203E4900052F0A3F0900053E004F07046
:102A5B0006900052E004F0122227920320030FC3CA
:102A6B00900053E0940A900052E0940040DB300356
:062A7B00031218B4A203CF
:012A81002232
:102B6B00C2021214E492023002199000587401F060
:102B7B00A37400F0A3743BF07B017A007935122427
:082B8B00D69202122B94A20263
:012B9300221F
:10252B00900050E4F0A37410F0C202122423121591
:10253B00EA900050EEF0A3EFF0C20264014E700778
:10254B00122A4B92028020900050E07004A3E064AA
:10255B000270051229D8800F900050E07004A3E0A0
:10256B0064037003121F5E900050E07004A3E064DC
:03257B000F70B826
:01257E00223A
:10236700C20190004EE4F0A37410F0D2A31223C56B
:102377001215EA90004EEEF0A3EFF0640A4E700CCF
:102387001216E07B017A0079470225D190004EE0D2
:102397007004A3E0640C700612283A9201229000A0
:1023A7004EE07004A3E0640D7013121C4D122B6BEA
:0D23B7009201300105C2A302252B12199BD3
:0123C40022F6
:100003004042CC0000445454547F54545444400060
:1000130000000000000000000000000000000000DD
:1000230000007F201000FF15151555957F00000077
:1000330000000000000000000000000000000000BD
:1000430088681FC80810C85452D1129408D01000F1
:10005300000000000000000000000000000000009D
:10006300091909FF0500FF1292FF005F807F00005E
:10007300000000000000000000000000000000007D
:10008300000000000001E21CE0000000000000008E
:10009300000000000000000000000000000000005D
:1000A300804020100C03000000030C3040808000CF
:1000B300000000000000000000000000000000003D
:1000C300000000FEFEC6C6C6C6CECE00000000007D
:1000D300000000000000000000000000000000001D
:1000E3000000003F3F303030303F3F000000000051
:1000F30000000000000000000000000000000000FD
:10010300008060F80710901011161010D010000036
:1001130000000000000000000000000000000000DC
:10012300010000FF4040415E4040704E41404000AE
:1001330000000000000000000000000000000000BC
:10014300108C4404E40495A64424148444940C00C1
:10015300000000000000000000000000000000009C
:1001630002027A414143427E42424243F800000088
:10017300000000000000000000000000000000007C
:100183000484E45C44C40002F2828282FE80800024
:10019300000000000000000000000000000000005C
:1001A30002017F10103F00080808084888403F00FC
:1001B300000000000000000000000000000000003C
:1001C30040445465C664544400FC4444C442400063
:1001D300000000000000000000000000000000001C
:1001E30020124A827F020A92601F0000FF00000073
:1001F30000000000000000000000000000000000FC
:100203000000FF000000FE828282828282FE0000E4
:1002130000000000000000000000000000000000DB
:100223000000FF0000007F2020202020207F00000E
:1002330000000000000000000000000000000000BB
:10024300108C4404E40495A64424148444940C00C0
:10025300000000000000000000000000000000009B
:1002630002027A414143427E42424243F800000087
:10027300000000000000000000000000000000007B
:100283000484E45C44C40002F2828282FE80800023
:10029300000000000000000000000000000000005B
:1002A30002017F10103F00080808084888403F00FB
:1002B300000000000000000000000000000000003B
:1002C3004030EF246448487F4848487F484840000E
:1002D300000000000000000000000000000000001B
:1002E30001017F211100FF4949494949FF000000ED
:1002F30000000000000000000000000000000000FB
:100303004042CC0000809E92929292929E80000086
:1003130000000000000000000000000000000000DA
:1003230000007F2094844424140F14244484840004
:1003330000000000000000000000000000000000BA
:10034300000000E0F0181C1C1C18F0E00000000086
:10035300000000000000000000000000000000009A
:100363000000001F3F30707070303F1F000000001E
:10037300000000000000000000000000000000007A
:10038300000000003C3C0CFCFC00000000000000EE
:10039300000000000000000000000000000000005A
:1003A300000000303030303F3F303030000000007C
:1003B300000000000000000000000000000000003A
:1003C300000000008C8C8C8CFCFC00000000000002
:1003D300000000000000000000000000000000001A
:1003E300000000003F3F31313131000000000000C8
:1003F30000000000000000000000000000000000FA
:1004030000000000000000000030080808887000A9
:1004130000000000000000000000000000000000D9
:10042300000018202121221C000000000000000011
:1004330000000000000000000000000000000000B9
:1004430000000000000000000000804030F80000C1
:100453000000000000000000000000000000000099
:1004630000060524243F24240000000000000000AF
:100473000000000000000000000000000000000079
:10048300000000000000000000F8888888080800C9
:100493000000000000000000000000000000000059
:1004A3000019202020110E000000000000000000B1
:1004B3000000000000000000000000000000000039
:1004C300000000000000000000E010888890000099
:1004D3000000000000000000000000000000000019
:1004E300000F112020201F0000000000000000006A
:1004F30000000000000000000000000000000000F9
:1005030000000000000000000018080888681800B8
:1005130000000000000000000000000000000000D8
:100523000000003E01000000000000000000000089
:1005330000000000000000000000000000000000B8
:1005430000000000000000000070880808887000A8
:100553000000000000000000000000000000000098
:10056300001C222121221C000000000000000000CA
:100573000000000000000000000000000000000078
:10058300000000000000000000F008080810E00070
:100593000000000000000000000000000000000058
:1005A3000001122222110F000000000000000000D1
:1005B3000000000000000000000000000000000038
:1005C3000000808890A0C0FCC0A0908880800000BC
:1005D3000000000000000000000000000000000018
:1005E300000000080402013F0102040800000000AB
:1005F30000000000000000000000000000000000F8
:100603004042CC0000445454547F5454544440005A
:1006130000000000000000000000000000000000D7
:1006230000007F201000FF15151555957F00000071
:1006330000000000000000000000000000000000B7
:10064300101010FF9020988888E98E8888A8980059
:100653000000000000000000000000000000000097
:100663000242817F000080844B28102847800000CD
:100673000000000000000000000000000000000077
:10068300020202020202FE0202428202020202008D
:100693000000000000000000000000000000000057
:1006A300000000000000FF00000000010600000041
:1006B3000000000000000000000000000000000037
:1006C30000002424242424FC2222222322000000CC
:1006D3000000000000000000000000000000000017
:1006E300020202020242827F0202020202020200AC
:1006F30000000000000000000000000000000000F7
:10070300101010FF1090003F4848444444427000CA
:1007130000000000000000000000000000000000D6
:100723000444827F010000FF4949494949FF000011
:1007330000000000000000000000000000000000B6
:100743004020F807F0A0904C5724A4544C8080001C
:100753000000000000000000000000000000000096
:100763000000FF001F809252492924120800000054
:100773000000000000000000000000000000000076
:100783000484848484FC4030CC0B0808F8080800F7
:100793000000000000000000000000000000000056
:1007A300007F201010088040211608162140800089
:1007B3000000000000000000000000000000000036
:1007C3000000F8888888880808FF08090AC8080014
:1007D3000000000000000000000000000000000016
:1007E30080601F0010201F80402116182641F8004A
:1007F30000000000000000000000000000000000F6
:10080300080808F80808081010FF101010F000007E
:1008130000000000000000000000000000000000D5
:100823001030101F088848300E014080403F000000
:1008330000000000000000000000000000000000B5
:100843008080829292929292929292FE8080800015
:100853000000000000000000000000000000000095
:10086300404022241048807F04081824224040007E
:100873000000000000000000000000000000000075
:100883008080829292929292929292FE80808000D5
:100893000000000000000000000000000000000055
:1008A300404022241048807F04081824224040003E
:1008B3000000000000000000000000000000000035
:1008C300000000000001E21CE00000000000000046
:1008D3000000000000000000000000000000000015
:1008E300804020100C03000000030C304080800087
:1008F30000000000000000000000000000000000F5
:10090300080808F80808081010FF101010F000007D
:1009130000000000000000000000000000000000D4
:100923001030101F088848300E014080403F0000FF
:1009330000000000000000000000000000000000B4
:1009430040484848FF484842A29E82A2C2BE0000D7
:100953000000000000000000000000000000000094
:1009630080601F207F4444404F484848484F400020
:100973000000000000000000000000000000000074
:100983002030AC6330000202FE0202625AC600004D
:100993000000000000000000000000000000000054
:1009A300226722121240308F80432C102C43800088
:1009B3000000000000000000000000000000000034
:1009C300108C4404E40495A64424148444940C0039
:1009D3000000000000000000000000000000000014
:1009E30002027A414143427E42424243F800000000
:1009F30000000000000000000000000000000000F4
:100A03000484E45C44C40002F2828282FE8080009B
:100A130000000000000000000000000000000000D3
:100A230002017F10103F00080808084888403F0073
:100A330000000000000000000000000000000000B3
:100A430004244484649C40300FC80808281800001C
:100A53000000000000000000000000000000000093
:100A630010080601824C2018060106182040800059
:100A73000000000000000000000000000000000073
:100A8300404042CC0000FC040200FC0404FC0000D3
:100A93000000000000000000000000000000000053
:100AA3000040201F20404F4442407F4244434000C7
:100AB3000000000000000000000000000000000033
:100AC30020202020202020FF202020202020200064
:100AD3000000000000000000000000000000000013
:100AE30080804020100C0300030C10204080800005
:100AF30000000000000000000000000000000000F3
:100B03000002027A4A4A4A4A7A02027E020200003C
:100B130000000000000000000000000000000000D2
:100B23000101013D252525253D41817F010101006D
:100B330000000000000000000000000000000000B2
:100B430000000000000000000000000000000000A2
:100B53000000000000000000000000000000000092
:100B63000000000000000000000000000000000082
:100B73008080000000000080808080800080808072
:100B83008080000000008000000000008000000062
:100B930000000000008000000000000000000000D2
:100BA3000000000000000000000000000000000042
:100BB3000000000000000000000000000000000032
:100BC3000000000000000000000000000000000022
:100BD300000000000000000000000000000000C052
:100BE300704E414E70C000000000402BA5113D31F6
:100BF300AB2D2D3503851B30FC1710F0009E96900E
:100C0300909FF000322EFBA286F256F504E702F421
:100C130004000000806039061860800000000000B6
:100C230000000000000000000000000000000000C1
:100C330000000000000000000000000000000000B1
:100C43000000000000387C7C7C7C7C7C7C7C7C7C91
:100C53007C7C7C7C7C7C7C7C7C7C7C7C7C7C7E7DCE
:100C63007C7C7C7C7C3902000303008003028202CB
:100C73000302028282070000078202070000800449
:100C83000404070001810700000705870005040726
:100C930000040203810000000000010306040000B9
:100CA3000000000000000000000000000000000041
:100CB3000000000000000000000000000000000031
:100CC3000000000000000000000000000000000021
:100CD3000000000000000000000000000000F88693
:100CE3000201010102000000004222FF1202EFA9EB
:100CF300A9A9A9A8E806006C5B2CA4821E32C2C372
:100D0300321E02322EFBA286F256F504E702F404E9
:100D130000000080603906186080000000000000B9
:100D230000000000000000000000000000000000C0
:100D330000000000000000000000000000000000B0
:100D43000000000070F8F8F8F8F8F8F8F8F8F8F888
:100D5300F8F8F8F8F8F8F8F8F8F8F8F8F8F8F8F90F
:100D6300FBFAFAFAF9700003030404878000070210
:100D7300020282020700008281818084868381814E
:100D830081828405010700808785878085848700A9
:100D930004028381808080008001030684000000B8
:100DA30080808080808080808000000000000000C0
:100DB3000000000000000000000000000000000030
:100DC3000000000000000000000000000000000020
:100DD3000000000000000000000000000000FF0110
:100DE30001010102867800000000020FF5575755F4
:100DF30057575577050D011010FF1000BF9292FF52
:100E03009292BF000000F0171414D414141417F0B6
:100E130000100AFC96979594959795FD1212082851
:100E23004A8A0A8AFACA8A8A4F2800000000000008
:100E330000000000000000000000000000000000AF
:100E430000000070F8F8F8F8F8F8F8F8F8F8F8F88F
:100E5300F8F8F8F8F8F8F8F8F8F8F8F8F8F8FBFA0A
:100E6300FAFAFAF9F9700000030300000705050513
:100E73000505050507000002020301050404040734
:100E83000404040400040504020201010202020531
:100E9300040404040506040404060504040404020B
:100EA300020505040700010302040000000000001E
:100EB300000000000000000000000000000000002F
:100EC300000000000000000000000000000000001F
:100ED300000000000000000000000000000000000F
:100EE30000000000000000000000000000000000FF
:100EF30000000000000000000000000000000000EF
:100F030000000000000000000000000000000000DE
:100F130000000000000000000000000000000000CE
:100F230000000000000000000000000000000000BE
:100F330000000000000000000000000000000000AE
:100F4300000000000000000000000000000000009E
:100F5300000000000000000000000000000000008E
:100F630000000000000000000000800000008080FE
:100F7300000080000000008000000000000000006E
:100F8300000000008000008000000000808000005E
:100F9300000080000000008000000000000000004E
:100FA300000000000000000000000000000000003E
:100FB300000000000000000000000000000000002E
:100FC300000000000000000000000000000000001E
:100FD3000000000000000000000000000000040604
:100FE30002FF0000000000000202FF8202EFAFA92F
:100FF300AFADABEF000404FF0404FC00FE020202E9
:10100300FE004222FF1202EFA9A9A9A9A8E806003F
:101013006C5B2CA4821E32C2C3321E02000000008D
:1010230000000000000000000000000000000000BD
:1010330000000000000000000000000000000000AD
:101043000000000000387C7C7C7C7C7C7C7C7C7C8D
:101053007C7C7C7C7C7C7C7C7C7C7C7C7C7C7C7CCD
:101063007C7F7C7C7C3803030101000000070202C3
:101073000202020700040304040407000702020239
:10108300070004040700000702020202020700002F
:10109300020101000406030101010204040000002F
:1010A300000000000000000000000000000000003D
:1010B300000000000000000000000000000000002D
:1010C300000000000000000000000000000000001D
:1010D3000000000000000000000000000000040207
:1010E3008242663C0000000020FF21FF20FF21FF19
:1010F30020FE00FF0000FF011DF3585C53F3565818
:1011030048508444FF2404DF5252525251D10C0000
:10111300D8B65948043C648586643C04000000004A
:1011230000000000000000000000000000000000BC
:1011330000000000000000000000000000000000AC
:101143000000000070F8F8F8F8F8F8F8F8F8F8F884
:10115300F8F8F8F8F8F8F8F8F8F8F8F8F8F8FEFD01
:10116300FCFCFCFCF87006060C03080F0C03080FCC
:101173000009080F00000F0101050209080F000113
:10118300020408080F00000F05050505050F000000
:1011930004020201090C060303020408080000000C
:1011A300000000000000000000000000000000003C
:1011B300000000000000000000000000000000002C
:1011C300000000000000000000000000000000001C
:1011D300000000000000000000000000000000000C
:1011E300084444C4B800000000000002FA2A2A2A76
:1011F300FE2A2A2AFA020000C44444FC60788E08BE
:101203008878080000AC9444F4C4AEB6B4D40C148B
:101213006CC2F25E42C2007A5A42427EC0000000B3
:1012230000000000000000000000000000000000BB
:1012330000000000000000000000000000000000AB
:1012430000000070F8F8F8F8F8F8F8F8F8F8F8F88B
:10125300F8F8F8F8F8F8F8F8F8F8F8F8F8F8F8F80B
:10126300FCF8F8FCFF7000000C0C001013150D09BE
:101273000F091111131010001F080412100805069E
:101283000508101001000E0808080E080808081EBB
:1012930000001F08081F0002021212121F000000A4
:1012A300000000000000000000000000000000003B
:1012B300000000000000000000000000000000002B
:1012C300000000000000000000000000000000001B
:1012D300000000000000000000000000000000000B
:1012E30000000000000000000000000000000000FB
:1012F30000000000000000000000000000000000EB
:1013030000000000000000000000000000000000DA
:1013130000000000000000000000000000000000CA
:1013230000000000000000000000000000000000BA
:1013330000000000000000000000000000000000AA
:102C1E00EF1FAA0670011E4A60147C007D6ED3ED74
:0E2C2E009400EC940040E9ED1D70F31C80F062
:012C3C002275
:101FFD007FF47E01122C1E7FAE122C8AE4FF122C70
:10200D008A7F10122C8A7F40122C8A7F81122C8A93
:10201D007FCF122C8A7FA1122C8A7FC8122C8A7F27
:10202D00A6122C8A7FA8122C8A7F3F122C8A7FD36E
:10203D00122C8AE4FF122C8A7FD5122C8A7F8012F3
:10204D002C8A7FD9122C8A7FF1122C8A7FDA122CDE
:10205D008A7F12122C8A7FDB122C8A7F40122C8AE7
:10206D007F20122C8A7F02122C8A7F8D122C8A7F60
:10207D0014122C8A7FA4122C8A7FA6122C8A7FAF71
:0E208D00122C8AE4FF122623E4FDFF022A8CA7
:0A2A8200A3E00475F019A4FF7D0322
:102A8C00900061EFF0ED24B0FF122C8A900061E011
:102A9C0054F0C4540F4410FF122C8A900061E0547F
:072AAC000F4401FF022C8A18
:0526230090005AEFF0E9
:10262800E4A3F090005BE0FFC394087480948050AA
:102638003BEF24B0FF122C8A7F01122C8A7F1012E4
:102648002C8AE490005CF090005CE0C39480748075
:102658009480501090005AE0FF122CA090005CE08B
:0C26680004F080E390005BE004F080B719
:012674002243
:1016E000E4FF122623E4900050F0A3F0900050E0B5
:1016F000FEA3E0FFC39407EE940040030217C9EF76
:1017000075F012A4FF7D02122A8CE4900052F0A31F
:10171000F0900052E0FCA3E0FDC39410EC94005064
:1017200039900050E0FEA3E07806C333CE33CED824
:10173000F92403F58274003EF583E5822DF582E5F8
:10174000833CF583E493FF122CA0900053E004F057
:1017500070BF900052E004F080B7900050A3E07595
:10176000F012122A88E4900052F0A3F0900052E0A8
:10177000FCA3E0FDC39410EC94005039900050E0BD
:10178000FEA3E07806C333CE33CED8F92423F58206
:1017900074003EF583E5822DF582E5833CF583E414
:1017A00093FF122CA0900053E004F070BF90005201
:1017B000E004F080B7900051E004F060030216EC02
:0917C000900050E004F00216EC68
:0117C90022FD
:08134300900054EEF0A3EFF05E
:10134B00E4FF1226237D027F23122A8CE49000589F
:10135B00F0A3F0900058E0FCA3E0FDC39410EC94D4
:10136B00005039900054E0FEA3E07805C333CE3330
:10137B00CED8F924C3F58274013EF583E5822DF5B1
:10138B0082E5833CF583E493FF122CA0900059E097
:10139B0004F070BF900058E004F080B77D037F230A
:1013AB00122A8CE4900058F0A3F0900058E0FCA3B4
:1013BB00E0FDC39410EC94005039900054E0FEA370
:1013CB00E07805C333CE33CED8F924C3F58274014C
:1013DB003EF583E5822DF582E5833CF583E493FFAF
:1013EB00122CA0900059E004F070BF900058E0045C
:1013FB00F080B7E4900056F0A3F0900056E0FEA307
:10140B00E0FFC39402EE940040030214E3EF2402C6
:10141B0075F023A4FF7D02122A8CE4900058F0A3F0
:10142B00F0900058E0FCA3E0FDC39410EC94005046
:10143B0039900056E0FEA3E07806C333CE33CED806
:10144B00F92443F58274023EF583E5822DF582E59E
:10145B00833CF583E493FF122CA0900059E004F039
:10146B0070BF900058E004F080B7900056A3E024C2
:10147B000275F023122A88E4900058F0A3F0900034
:10148B0058E0FCA3E0FDC39410EC9400503990009D
:10149B0056E0FEA3E07806C333CE33CED8F92463EF
:1014AB00F58274023EF583E5822DF582E5833CF5EA
:1014BB0083E493FF122CA0900059E004F070BF90CE
:1014CB000058E004F080B7900057E004F0700690ED
:0814DB000056E004F0021405C4
:0114E30022E6
:10199B00E4FF122623E4900055F0A3F0900055E0ED
:1019AB00FEA3E0FFC39404EE94004003021A80EF01
:1019BB000475F019A4FF7D02122A8CE4900057F0F5
:1019CB00A3F0900057E0FCA3E0FDC39410EC94004F
:1019DB005039900055E0FEA3E07806C333CE33CEEA
:1019EB00D8F92443F58274023EF583E5822DF58206
:1019FB00E5833CF583E493FF122CA0900058E004A0
:101A0B00F070BF900057E004F080B7900055122A99
:101A1B0082E4900057F0A3F0900057E0FCA3E0FDA8
:101A2B00C39410EC94005039900055E0FEA3E0787D
:101A3B0006C333CE33CED8F92463F58274023EF558
:101A4B0083E5822DF582E5833CF583E493FF122C2D
:101A5B00A0900058E004F070BF900057E004F080B5
:101A6B00B7900056E004F060030219A7900055E010
:051A7B0004F00219A7B0
:011A80002243
:101A8100E4FF122623E4900055F0A3F0900055E006
:101A9100FEA3E0FFC39404EE94004003021B66EF33
:101AA1000475F019A4FF7D02122A8CE4900057F00E
:101AB100A3F0900057E0FCA3E0FDC39410EC940068
:101AC1005039900055E0FEA3E07806C333CE33CE03
:101AD100D8F92443F582740A3EF583E5822DF58217
:101AE100E5833CF583E493FF122CA0900058E004B9
:101AF100F070BF900057E004F080B7900055122AB3
:101B010082E4900057F0A3F0900057E0FCA3E0FDC1
:101B1100C39410EC94005039900055E0FEA3E07896
:101B210006C333CE33CED8F92463F582740A3EF569
:101B310083E5822DF582E5833CF583E493FF122C46
:101B4100A0900058E004F070BF900057E004F080CE
:101B5100B7900056E004F06003021A8D900055E042
:051B610004F0021A8DE2
:011B6600225C
:0D1D330090005EEDF090005CEEF0A3EFF08C
:101D400075F012A4FF7D04122A8CE490005FF0A3CA
:101D5000F090005FE0FEA3E0FFC39410EE9400500B
:101D60003290005EE075F020A42443F582E5F03463
:101D700003F583E5822FF582E5833EF583E493FF47
:101D8000122CA0900060E004F070C690005FE004A8
:101D9000F080BE90005CA3E075F012A4FF7D0512F8
:101DA0002A8CE490005FF0A3F090005FE0FEA3E0D7
:101DB000FFC39410EE9400503290005EE075F02066
:101DC000A42443F582E5F03403F583E5822FF58200
:101DD000E5833EF583E493FF122CA0900060E004BD
:0B1DE000F070C690005FE004F080BED1
:011DEB0022D5
:08209B0090005CEEF0A3EFF0F1
:1020A30075F012A4FF7D04122A8CE490005EF0A365
:1020B300F090005EE0FEA3E0FFC39410EE940050A6
:1020C3002074C32FF58274053EF583E493FF122C2D
:1020D300A090005FE004F070D890005EE004F08010
:1020E300D090005CA3E075F012A4FF7D05122A8C4A
:1020F300E490005EF0A3F090005EE0FEA3E0FFC377
:102103009410EE9400502074E32FF58274053EF58D
:1021130083E493FF122CA090005FE004F070D8904A
:07212300005EE004F080D033
:01212A002292
:0822FD0090005CEEF0A3EFF08D
:10230500A37404F090005EE0FDC39406748094808D
:10231500504F90005CA3E075F012A4FF122A8C9038
:10232500005CA3E075F012A490005FF090005CE003
:10233500FEA3E0FF7C007D12121ED0EF2410FFE407
:102345003EFE90005FE0C39FEC9E500DE4FF122C13
:10235500A090005FE004F080D390005EE004F08080
:01236500A3D4
:012366002254
:1017CA00E4FF122623E4900054F0A3F0900054E0C2
:1017DA00FEA3E0FFC39405EE940040030218B3EFA2
:1017EA0075F012A4FF7D02122A8CE4900056F0A331
:1017FA00F0900056E0FCA3E0FDC39410EC94005076
:10180A0039900054E0FEA3E07806C333CE33CED835
:10181A00F92403F58274063EF583E5822DF582E507
:10182A00833CF583E493FF122CA0900057E004F068
:10183A0070BF900056E004F080B7900054A3E075A2
:10184A00F012122A88E4900056F0A3F0900056E0B5
:10185A00FCA3E0FDC39410EC94005039900054E0CE
:10186A00FEA3E07806C333CE33CED8F92423F5821B
:10187A0074063EF583E5822DF582E5833CF583E423
:10188A0093FF122CA0900057E004F070BF9000560E
:10189A00E004F080B7900055E004F060030217D628
:0918AA00900054E004F00217D68E
:0118B3002212
:101B6700E4FF122623E4900054F0A3F0900054E021
:101B7700FEA3E0FFC39404EE94004003021C4CEF65
:101B87000475F019A4FF7D02122A8CE4900056F028
:101B9700A3F0900056E0FCA3E0FDC39410EC940082
:101BA7005039900054E0FEA3E07806C333CE33CE1D
:101BB700D8F92443F58274073EF583E5822DF58233
:101BC700E5833CF583E493FF122CA0900057E004D3
:101BD700F070BF900056E004F080B7900054122ACE
:101BE70082E4900056F0A3F0900056E0FCA3E0FDDD
:101BF700C39410EC94005039900054E0FEA3E078B1
:101C070006C333CE33CED8F92463F58274073EF585
:101C170083E5822DF582E5833CF583E493FF122C5F
:101C2700A0900057E004F070BF900056E004F080E9
:101C3700B7900055E004F06003021B73900054E076
:051C470004F0021B7314
:011C4C002275
:1018B400E4FF122623900054E4F0A304F0900054B3
:1018C400E0FEA3E0FFC39405EE9400400302199ADE
:1018D400EF0475F019A4FF7D02122A8CE4900056DF
:1018E400F0A3F0900056E0FCA3E0FDC39410EC9448
:1018F400005039900054E0FEA3E07806C333CE33A1
:10190400CED8F92443F58274083EF583E5822DF59B
:1019140082E5833CF583E493FF122CA0900057E00A
:1019240004F070BF900056E004F080B790005412A9
:101934002A82E4900056F0A3F0900056E0FCA3E065
:10194400FDC39410EC94005039900054E0FEA3E0E1
:101954007806C333CE33CED8F92463F58274083EB7
:10196400F583E5822DF582E5833CF583E493FF124C
:101974002CA0900057E004F070BF900056E004F0F3
:1019840080B7900055E004F060030218C190005441
:06199400E004F00218C19E
:01199A00222A
:101C4D00E4FF122623E4900050F0A3F0900050E042
:101C5D00FEA3E0FFC39404EE94004003021D32EF97
:101C6D000475F019A4FF7D02122A8CE4900052F045
:101C7D00A3F0900052E0FCA3E0FDC39410EC94009F
:101C8D005039900050E0FEA3E07806C333CE33CE3A
:101C9D00D8F92443F58274093EF583E5822DF5824A
:101CAD00E5833CF583E493FF122CA0900053E004F0
:101CBD00F070BF900052E004F080B7900050122AEF
:101CCD0082E4900052F0A3F0900052E0FCA3E0FDFE
:101CDD00C39410EC94005039900050E0FEA3E078CE
:101CED0006C333CE33CED8F92463F58274093EF59D
:101CFD0083E5822DF582E5833CF583E493FF122C79
:101D0D00A0900053E004F070BF900052E004F0800A
:101D1D00B7900051E004F06003021C59900050E0B0
:051D2D0004F0021C5946
:011D3200228E
:1023C500E4900050F0900050E0FDC39408748094B0
:1023D50080504AE4FF122A8CE4900051F09000519D
:1023E500E0FFC3948074809480502A900050E0757B
:1023F500F080A42FF582E435F0F583E5822443F5DA
:1024050082E583340BF583E493FF122CA0900051F1
:0D241500E004F080C8900050E004F080A8C2
:012422002297
:10242300E4900052F0900052E0FDC394087480944D
:1024330080504AE4FF122A8CE4900053F09000533A
:10244300E0FFC3948074809480502A900052E0751A
:10245300F080A42FF582E435F0F583E5822443F57B
:1024630082E583340FF583E493FF122CA09000538D
:0D247300E004F080C8900052E004F080A862
:012480002239
:0B2D1500D2B6D2B700C2B700C2B6228F
:0B2D2000C2B6C2B700D2B6D2B7002284
:102C8A00900062122B3FE4FF122B46900062E0FF95
:062C9A00122B46022D2062
:102CA000900061122B3F7F40122B46900061E0FFA5
:062CB000122B46022D204C
:072B3F00EFF0122D157F7865
:102B4600E4FEEEC39408748094805010EF25E0FFF5
:102B560092B7D2B600C2B600000E80E6D2B7D2B6A1
:042B660000C2B600F3
:012B6A002248
:0D2C5B007F0F7E00122C68D2A17F0F7E003B
:0B2C6800EF1FAC0670011E4C70F6223E
:0E2CED00D2A0122C5BC2A07F0F7E00022C68CA
:0B2AE400122B12122AEFAF02122B126D
:102AEF00E4FDD2A17F0FFE122C6830A00DAF050DB3
:102AFF00C3EF94FF7480948040F0C2A17F0F7E00DB
:032B0F00022C682D
:0E2CFB00C2A0122C5BD2A07F0F7E00022C68BC
:022B1200AD070D
:102B1400E4FBEBC39408748094805011ED25E0FD30
:102B2400C2A1122C6492A0122C5B0B80E5C2A112EC
:0B2B34002C64D2A17F0F7E00022C68F1
:102AB300C2A1122C64D2A0122C64122C64E4FBEB8E
:102AC300C39408748094805015122C62ED25E0FFA6
:102AD300A2A0E4334FFDC2A1122C640B80E1AF0529
:012AE30022D0
:102C7300AA05A907122CED7FA0122B12122AEFAF7F
:072C830001122AE4022CFB00
:022BB700AA076B
:102BB900122CED7FA0122AE4122CED7FA1122B1208
:102BC900122AEF122AB3AB07122AEF122CFBAF031A
:012BD90022D9
:10275E000100071300000000001BEF01FFFFFFFF49
:10276E000100030100050100031D00210100080402
:10277E0001000003E700F801000804010000001347
:10278E0000210100040201000801000402020009F8
:0C279E000100030500090100030D0011FB
:10281B0042000A00004A00000100070C0000000102
:0E282B00001549002C0100060601000B0019E3
:042BFC007F647E0074
:102C0000D3EF9400EE940040147D6E7C00ED1D70B7
:0D2C1000011CED4C70F7EF1F70E61E80E315
:012C1D002294
:102A1300E4900056F0A3F0900056E0FEA3E0FFC35D
:102A23009406EE9400502074682FF58274273EF5C7
:102A330083E493FF122D2B900057E004F070D8909D
:072A43000056E004F080D012
:012A4A002269
:10287600122A13E490004EF0A3F090004EE0FEA35F
:10288600E0FFC3940AEE94005020745E2FF5827424
:10289600273EF583E493FF122D2B90004FE004F0C2
:0A28A60070D890004EE004F080D0DE
:0128B0002205
:0426C6007F0C7E0007
:0826CA00900056EEF0A3EFF0C2
:1026D200E4A3F0A3F0900056E0FEA3E0FFC3900055
:1026E20059E09F900058E09E5025122D33900058DB
:1026F200E0FCA3E0240CF58274003CF583EFF0903B
:0F2702000059E004F070CE900058E004F080C65B
:0127110022A5
:1028B100122A13E4900054F0A3F0900054E0FEA318
:1028C100E0FFC39406EE94005020746E2FF58274DD
:1028D100273EF583E493FF122D2B900055E004F081
:0A28E10070D8900054E004F080D09D
:0128EB0022CA
:1028EC00122A13E4900054F0A3F0900054E0FEA3DD
:1028FC00E0FFC39407EE9400502074902FF582747F
:10290C00273EF583E493FF122D2B900055E004F045
:0A291C0070D8900054E004F080D061
:01292600228E
:10292700122A13E4900054F0A3F0900054E0FEA3A1
:10293700E0FFC39407EE9400502074972FF582743C
:10294700273EF583E493FF122D2B900055E004F00A
:0A29570070D8900054E004F080D026
:012961002253
:10296200122A13E4900054F0A3F0900054E0FEA366
:10297200E0FFC39406EE94005020749E2FF58274FB
:10298200273EF583E493FF122D2B900055E004F0CF
:0A29920070D8900054E004F080D0EB
:01299C002218
:10299D00122A13E4900052F0A3F0900052E0FEA32F
:1029AD00E0FFC3940BEE94005020747A2FF58274DF
:1029BD00273EF583E493FF122D2B900053E004F096
:0A29CD0070D8900052E004F080D0B2
:0129D70022DD
:10267500122A13E4900054F0A3F0900054E0FEA356
:10268500E0FFC39406EE9400502074742FF5827415
:10269500273EF583E493FF122D2B900055E004F0BF
:1026A50070D8900054E004F080D07F0E7E00122692
:1026B500CA900016E0FEA3E07C002400FFEC3EFE7D
:0126C50022F2
:041DEC00AB07AA0691
:101DF000900064121F2D00000000EA900004F0EB38
:101E0000A3F0E4900063F0900063E0C39408748052
:101E100094805039A3E0F8A3E0F9A3E0FAA3E0FB33
:101E2000900063E02400F582E43400F583E0FFE4F1
:101E3000FCFDFEEB2FFFEE3AFEED39FDEC38FC9099
:101E40000064121F21900063E004F080BA900064E7
:101E5000A3A3E0FEA3E4FFE4FDFC7808121F0E90AC
:101E60000008EFF0900064E0FCA3E0FDA3E0FEA317
:101E7000E0FF900009EFF0122A13E4900063F09065
:101E80000063E0FFC3940A74809480501774002F9D
:101E9000F582E43400F583E0FF122D2B900063E01F
:041EA00004F080DBEF
:011EA400221B
:1029D800122A13E4900052F0A3F0900052E0FEA3F4
:1029E800E0FFC39406EE9400502074A42FF582747F
:1029F800273EF583E493FF122D2B900053E004F05B
:0A2A080070D8900052E004F080D076
:012A120022A1
:0421B700AD07AC06BE
:1021BB00E4FBFAEC900031F0A3EFF0E4900054F064
:1021CB00900054E0FFC39407748094805018742CD3
:1021DB002FF582E43400F583E02BFBE43AFA900010
:1021EB0054E004F080DAEA900033F0A3EBF0122A0B
:1021FB0013E4900054F0900054E0FFC394097480F2
:10220B0094805017742C2FF582E43400F583E0FF93
:0B221B00122D2B900054E004F080DB3B
:012226002295
:102CC900C2011228761226C6900015E07002D201C0
:022CD900A20156
:012CDB0022D6
:10222700C20412267590000AEEF0A3EFF01217CA47
:102237001228B11226C6900015E070F4122BFC127A
:1022470028EC1226C6900015E0703D7F64FE122C24
:10225700001217CA1228B11226C6900015E070F4B2
:10226700122BFC1229271226C61229621226C690A3
:10227700000AE0FEA3E0FF1221B71226C6122BFCCC
:0A228700900015E07002D204A204DA
:01229100222A
:1027AA00C2031217CAE490000AF0A3F01228B11269
:1027BA0026C6900015E070F4122BFC1228EC1226A3
:1027CA00C612299D7F107E001226CA900015E0705D
:1027DA0015D203A3E0FEA3E07C002400FFEC3E90A8
:0827EA00000AF0A3EFF0A203C6
:0127F20022C4
:10271200C205E4900068F0A3F01217CA1227AA9229
:1027220005900069E004F07006900068E004F02073
:10273200050FC3900069E09464900068E094004043
:10274200DBC20590000AE0FEA3E0FF121DEC122698
:0B275200C6900015E07002D205A20541
:01275D002259
:102CDC00759850438920758DFD758BFDD28ED2AFC2
:012CEC0022C5
:082D2B008F993099FDC2992235
:072D33003098FDC298AF9932
:012D3A002276
:10229200C3EF9403EE940050060FBF00010E22EF2D
:1022A20064034E7004FE7F0A22EF64074E7004FE40
:1022B2007F0B22C374079FE49E500FC3EF940BEE73
:1022C20094005006EF1F70321E22EF640B4E700412
:1022D200FE7F0C22EF640C4E7004FE7F0E22EF6430
:1022E2000D4E7003FEFF22EF640E4E7004FE7F0F50
:0B22F20022EF640F4E7003FE7F0D22F0
:1015EA0090005EE4F0A37410F075900FAF90EF6472
:1015FA000F70030216BF90005C7403F0A374E8F046
:10160A0090005C74FFF5F0121EF845F070F27590C8
:10161A000FAF90EF640F70030216BFAF90EF24F57F
:10162A00601424FE601A14602224077027E49000D4
:10163A005EF0A3F0801E90005EE4F0A304F0801434
:10164A0090005EE4F0A37402F0800990005EE4F07A
:10165A00A37403F07590F0AF90EF2450600C24E06F
:10166A00601024F060142470801E90005FE024044F
:10167A00800E90005FE02408800690005FE0240C52
:10168A00F090005EE03400F090005CE4F0A3746433
:10169A00F0AF90EF64F0601DD390005DE09400908D
:1016AA00005CE09400400EA3E024FFF090005CE0B0
:1016BA0034FFF080DC90005EE0FEA3E0FF64104E91
:1016CA00600B12229290005EEEF0A3EFF090005EA3
:0516DA00E0FEA3E0FFAB
:0116DF0022E8
:102C3D00D3EF9400EE940040147D6E7C00ED1D707A
:0D2C4D00011CED4C70F7EF1F70E61E80E3D8
:012C5A002257
:0C2D0900C2B27F887E13122C3DD2B22291
:10213700022CB6E493A3F8E493A34003F68001F2DC
:1021470008DFF48029E493A3F85407240CC8C333A9
:10215700C4540F4420C8834004F456800146F6DF78
:10216700E4800B01020408102040809027F3E47EEE
:10217700019360BCA3FF543F30E509541FFEE4936D
:10218700A360010ECF54C025E060A840B8E493A334
:10219700FAE493A3F8E493A3C8C582C8CAC583CA5F
:1021A700F0A3C8C582C8CAC583CADFE9DEE780BE17
:01283900009E
:101EA500BB010689828A83E0225002E722BBFE023B
:091EB500E32289828A83E493226E
:101EBE00BB010689828A83F0225002F722BBFE0103
:021ECE00F322FD
:101ED000EF8DF0A4A8F0CF8CF0A428CE8DF0A42E26
:021EE000FE22E0
:101EE200C5F0F8A3E028F0C5F0F8E582158270028B
:061EF2001583E038F02228
:101EF800A3F8E0C5F025F0F0E5821582700215839D
:061F0800E0C838F0E822F9
:101F0E00E8600FECC313FCED13FDEE13FEEF13FFB1
:031F1E00D8F122D5
:0C1F2100ECF0A3EDF0A3EEF0A3EFF02233
:101F2D00A8828583F0D083D082121F44121F4412E1
:101F3D001F44121F44E473E493A3C583C5F0C58306
:101F4D00C8C582C8F0A3C583C5F0C583C8C582C8FE
:011F5D002261
:00000001FF
